:10600000C00A0020F9690000F5690000F569000088
:10601000FDA30000F5690000F5690000F5690000C6
:10602000F5690000F5690000F5690000F5690000F8
:10603000F5690000940F0300F5690000F5690000A0
:10604000F5690000F5690000F5690000F5690000D8
:10605000F5690000F5690000F5690000F5690000C8
:10606000F5690000F5690000F5690000F5690000B8
:1060700029B10000F5690000F5690000F56900002C
:10608000F5690000F5690000F56900000D67000082
:10609000F5690000FD6C0000F5690000F56900007D
:1060A000F5690000FD6D0000D56D0000F569000088
:1060B000F569000089ED0200F56900002DF8020085
:1060C000DDF70200D9F7020049EF020029F80200CB
:1060D000E1F7020001F80200E5F7020081F8020092
:1060E000B1D0020079D2020069F80200F56900001F
:1060F000D19B0000F5690000F5690000F56900001A
:1061000025670000F5690000F5690000F5690000E9
:10611000F5690000F5690000F5690000F569000007
:10612000F5690000F5690000F5690000F5690000F7
:10613000F5690000F5690000296900003569000073
:1061400010B5054C237833B9044B13B1044800E073
:1061500000BF0123237010BDD00F002000000000FD
:10616000645F030008B5034B1BB10349034800E01B
:1061700000BF08BD00000000D40F0020645F0300D2
:10618000154B002B08BF134B9D46A3F5803A002109
:106190008B460F461348144A121A2AF010FB0F4B75
:1061A000002B00D098470E4B002B00D098470020C2
:1061B000002104000D000D48002802D00C4800E02A
:1061C00000BF2AF095FA2000290000F0CBFA2AF04F
:1061D0007BFA00BF00000800C00A00200000000099
:1061E00000000000D00F0020A04D002000000000A3
:1061F000000000002DE9F04701254FF0020AA6B08B
:106200001022002112A82AF0DAFA08214FF4C06007
:106210008DF8485001F0A2FE29462C2001F012FB17
:106220002C208DF84EA08DF848508DF84A5001F082
:1062300053FB00244FF09448159012A94FF094405E
:106240008DF849408DF8504002F0DCFFD8F8383026
:10625000DFF83C9243F00403C8F838304FF40023D1
:106260002946C9F800303B2001F0ECFA4FF40072E7
:106270002046114603F08CF8704F214620460C2230
:1062800003F097F808AE21462046642203F085F813
:106290000FCF0FC60FCF0FC697E80300032750227A
:1062A00086E80300214612A8CDE9054407948DF83D
:1062B0000C408DF80D408DF80E708DF80F408DF864
:1062C00010408DF811408DF812402AF078FA5146AE
:1062D0004FF4B0605A4E8DF848508DF84D508DF8FF
:1062E00052508DF857508DF85C508DF861508DF8F4
:1062F00066508DF86B508DF870508DF875508DF894
:106300007A508DF87F508DF884508DF889508DF833
:106310008E508DF8935001F021FE29462A2001F07D
:1063200091FA29463A2001F08DFA304602F0C8FB76
:106330002246444930468DF8174002F03BFC234684
:106340008DF81900009022463F4930468DF82470A0
:1063500002F048FCA0238DF84930B3238DF84E306D
:106360003A4B0A90D3F828238DF811402A438DF830
:1063700010708DF80D508DF848508DF84C508DF8F8
:106380004D508DF85150C3F82823D3F8282305A980
:1063900042F48032C3F82823304608AA02F046FCB3
:1063A00012AA03A9304602F027FB42F22403284A2E
:1063B0002146F250B36A274A43F48073B3624FF424
:1063C0008033C9F88431C9F80430234B23481C803A
:1063D00000231360224A1360224A1360224A13608A
:1063E00028222AF0ECF92146282220482AF0E7F951
:1063F00021464FF47C621E482AF0E1F94FF47C629A
:1064000021461C482AF0DBF91B4B29461C805C8086
:106410009C801A4B40461C80194B1C70194B1C70F9
:1064200002F0E4FE08231848F3600AF0F5FA174872
:106430000AF0F2FA26B0BDE8F08700BFF00E0300C4
:106440000040004A404B4C0040420F0000C0034057
:106450008F330F8010270020DE36002018370020F1
:10646000E836002014270020D8360020F03600201F
:106470001827002040370020E0360020EC360020AE
:10648000DD360020DC3600201B0F03002F0F030039
:1064900000E100E00000000030B501222DED028B8C
:1064A000614B83B0DA605A6A9205FCD55F4B1A786B
:1064B000002A00F09A8000221A705D4B5D4C93ED2B
:1064C000007AD3ED017A2178B8EE477AF8EE677A50
:1064D000594B5A4AD1B95A49098889000B440A4490
:1064E00083ED007AC2ED007A554A138801339BB2DE
:1064F00013802278002A7CD1092B524871D803B02E
:10650000BDEC028BBDE830400AF086BAC2ED097AD4
:10651000DFED4D7A83ED097AB0EE677A03F1280159
:10652000F3EC016A37EE267AF2EC016A8B4277EEE1
:10653000A67AF5D1B2EE046AC7EE066A87EE867ACD
:10654000424D434B85ED007AC3ED006A414B424911
:10655000A3F1240053F8042D43F8042C51F8042D22
:10656000984241F8042CF5D1DFED3C8AB7EE008A61
:10657000C8EEA67A77EEC87A17EE900A29F088FB63
:1065800002460B460020364929F004FD41EC100B71
:106590002AF0FCF920A3D3E9002351EC100B29F0D9
:1065A000CFFB29F0AFFE29F073FB1DA3D3E9002335
:1065B00029F010FA29F0A6FE07EE900A9FED297A3D
:1065C000C8EE277A77EEC77A95ED007A264BC3EDB1
:1065D000007AC8EE877A77EEC87A244BC3ED007A4A
:1065E00082E70AF019FA0123237003B0BDEC028B95
:1065F00030BD1D4B186829F04BFB1C4B0446186836
:106600000D4629F045FB2246CDE900012B461848EE
:106610000AF002FAE9E700BF000000806597303F0A
:1066200045A725E6E1796B3F0040004ADD360020B2
:10663000EC0F0020DC36002018370020F036002058
:10664000DE360020660F030000000000E836002060
:1066500010270020403700201837002000F07F4529
:106660000000F03F3393884314270020D8360020E1
:10667000680F030010B503681F4A23F47F4323F01B
:106680000703934288B007D01C4A934232D10222BA
:106690001B4B114618782BE0194C204620F07AF855
:1066A000184B00211A889B78ADF80C208DF80E301D
:1066B000032203AB207820F0BDF80E2240F60F1322
:1066C00011490DEB0200ADF80C302AF047F903AB8D
:1066D00011220121207820F0ADF84FF4C862002388
:1066E00011462078009320F07BF802221146207892
:1066F00020F0CCF808B010BDA0000100A0000601F9
:10670000C00A0020180F0300850F03000422034B6A
:106710001A600122024B1A70704700BF3420004AF1
:10672000DD36002037B542F224034FF480720B4C63
:106730000B4DE250D4F888305B0705D1012003B03F
:10674000BDE830400CF052BB2146684602F0FEFC2A
:106750009DF80430009A45F82320EBE70040004AFA
:10676000EC0F002008B504F0FCFCFFF743FD04F03B
:1067700005FDFFF791FE03F065FFF8E708B5044853
:106780000CF090F9BDE8084002480CF0BDB900BF1C
:10679000B0110300901103000120704700B54FF4C1
:1067A0008270C3B0FFF7F8FF30B101A81FF0ECFF13
:1067B00010B901A8FFF75EFF43B05DF804FB08B510
:1067C0000321802001F0CAFB08214FF4C06001F0D2
:1067D000C5FB08214FF4F06001F0C0FB08213E200A
:1067E00001F0BCFB08212D2001F0B8FB002008BD02
:1067F00010B501213A2001F025F8002304220721D9
:10680000022002F097F8BDE8104000230422184649
:10681000114602F08FB80000174B10B51B68C3F388
:106820000743012B10D1154B4FF48022596E41F2D2
:10683000640049034FF0040458BF42F264011A5047
:106840000F48046058BF5A5002F0B6FF02F044FFF0
:1068500002F0D0FF02F062FF02F08EFF02F092FF22
:10686000FFF7ADFF02F048FF00F0DCFA04F014F986
:10687000BDE8104003F032BE0080E00F0080004011
:106880002020014008B5FFF7B3FFBDE8084000F045
:10689000A1B808B504F0C6F902F0AEFF00F042F866
:1068A00006F091FDBDE8084003F008BD08B502F010
:1068B000F5FE02F0FFFEBDE80840FFF75FBF70473E
:1068C00070477047FFF76ABF7047000070B5124EFF
:1068D00098B0354606AC0FCD0FC495E80F0006F111
:1068E000200584E80F000FCD0EAC0FC40FCD0FC4F0
:1068F00095E8030006F1480384E803000FCB02ACDF
:1069000084E80F00054B06AA009321460EAB04480D
:1069100003F0FAF918B070BDE01103001810002060
:106920008C100020FFF7D2BF014B186803F0DCBACF
:106930008C100020FFF7F8BF014803F0F7BB00BF41
:106940008C100020012070470120704710B50CF01A
:1069500029FA0446FFF7F6FF002814BF204600205E
:1069600010BD38B504F02AFB04460CF029FA0428BF
:106970001ED002284FF0000508BF0124FFF7DCFFFE
:10698000042817D0022808BF012400F005FE0428BF
:1069900012D0022808BF0124FFF7D6FF04280DD02B
:1069A000022808BF0124002D18BF0024204638BD4E
:1069B0000125E3E70125E8E70125EDE70024F5E7F8
:1069C00018B1034B1860002070472520704700BFA6
:1069D000B010002010B5054C0549206800F0E0FC1F
:1069E0002068BDE81040FFF7EBBF00BFFC0A0020A5
:1069F000D00A0020FEE7000008B500F013F8064AB0
:106A0000064B07498B4201D3FFF7BAFB52F8040F3C
:106A100043F8040BF6E700BF685F0300C00A0020DC
:106A2000D00F0020044B054A9A60D3F8882042F426
:106A30007002C3F88820704700ED00E0006000009D
:106A4000014B1868704700BF040C0020084B1B6FF7
:106A500003F00703022B04D0032B05D0012B05D034
:106A6000FEE7044B18687047034BFBE70348704789
:106A700000800040040C0020080C0020002D310193
:106A800008B5FFF7E3FF054B1B6FC3F30333013377
:106A9000B0FBF3F0024B186008BD00BF008000405F
:106AA000000C00200048704700B4C404014B186873
:106AB000704700BF080C0020054B1860054B1B6F8A
:106AC00003F00703032B01D1FFF7DABF704700BFC4
:106AD000080C0020008000400020704700487047EC
:106AE000002D31014FF4004070474FF47A70704729
:106AF000014B1868704700BF0C0C002028231B684E
:106B0000B3F5C04F03D21968064A914203D000235F
:106B1000037083607047012202709A689B6942602B
:106B2000F7E700BF07B0CD5E00230360704703683E
:106B30000B6001607047036803B970478B4202D154
:106B40000B68036070471846F5E70000054A0649E0
:106B50001368184488428CBF4FF0FF33106018460A
:106B6000704700BF100C00200080002038B5104B8B
:106B700005461B78BBB1C0B101F039FB00230D49BC
:106B800001EB0312147B3CB92B60012314601373D7
:106B900001F033FB204638BD0133082BF0D101F062
:106BA0002CFB0548F7E70548F5E70548F3E700BF84
:106BB00034120020B4100020048000F0028000F0A5
:106BC000018000F0154B13B51868002301908DF873
:106BD000043001F00CFB124B1C7824B101F00DFBCA
:106BE000104802B010BD01221A7001F006FB0E4BD6
:106BF00001A81C731C7783F82C4083F83C4083F871
:106C00004C4083F85C4083F86C4083F87C40082358
:106C10008DF8073002F0B4FA2046E2E7381203009C
:106C200034120020038000F0B410002008B50A4B95
:106C30001B785BB107280BD8084B03EB00131B7BB9
:106C400043B1002102F08CFA002008BD0448FCE7A3
:106C50000448FAE70448F8E734120020B410002092
:106C6000028000F0018000F0078000F008B50A4BB8
:106C70001B785BB107280BD8084B03EB00131B7B79
:106C800043B1012102F06CFA002008BD0448FCE782
:106C90000448FAE70448F8E734120020B410002052
:106CA000028000F0018000F0078000F00D4B1B789F
:106CB00093B1072812D889B10B4B03EB00131B7B50
:106CC00073B10A4BDA6A012303FA00F010401ABFCD
:106CD00000200B70087070470548704705487047E2
:106CE0000548704734120020B41000200000044012
:106CF000028000F0018000F0078000F02DE9F843E9
:106D0000174B1F6D5B6D1F4000D5FEE70126002568
:106D1000144CDFF85480DFF85490374217D02368C2
:106D2000C8F800609BB1A16862680131A160284683
:106D30009847637B012B0AD148B909EB4513197BAE
:106D40001A7F60F3410160F3410219731A7701352C
:106D5000082D4FEA460604F11004DED1BDE8F883A1
:106D600000000440B41000205020044034110020E2
:106D700070B504460125084E04B970BD94FAA4F01C
:106D8000B0FA80F005FA00F324EA030456F8203044
:106D9000002BF1D09847EFE7381200204FF0007237
:106DA000044BC3F880211A604FF08062C3F8802141
:106DB0001A60704700E100E038B504460D4601F066
:106DC00016FA034B43F82450BDE8384001F015BAD9
:106DD00038120020084BD3F82404D3F820241040A4
:106DE00042F2204220F42A5020F02A004004400CB5
:106DF0009850FFF7BDBF00BF00C00340084BD3F859
:106E00002404D3F82024104042F2204220F4AA4067
:106E100020F055000004000C9850FFF7A9BF00BFF8
:106E200000C00340024B1968024B18680BF02CB9E4
:106E3000180C0020140C00207047000070B594005E
:106E4000224605460E462AF04BF8431C02D018B1E4
:106E5000064800E0064870BD22463146284629F023
:106E60007BFC0028034808BF0020F4E724E000F082
:106E700021E000F010E000F013B5044601A802F094
:106E800027FB9DF80630012223804FF480730020F9
:106E90006380054B9B680A3303F01F0302FA03F378
:106EA000636002B010BD00BF0080E00F02F0FEB9C9
:106EB00008B502F0E7F9002008BD10B5044644EA21
:106EC000010313F00303084609D1934201D10020C6
:106ED00010BD54F8231040F823100133F5E7920059
:106EE000214629F048FCF2E710B5044629F0F0FFEE
:106EF000431C02D018B10C4800E00C4810BD0C4BEC
:106F000020469B680A3303F01F020123934023F0BD
:106F100003032344984201D10020EFE750F8042BEB
:106F20000132F7D00348E9E724E000F021E000F067
:106F30000080E00F0EE000F008B501F051F9014BC0
:106F4000186008BD90470020014B186801F04CB94B
:106F5000904700200A460139014403F0FFB90000C0
:106F600038B141B1013AB2F5006F044838BF002092
:106F70007047034870470148704700BF037000F036
:106F8000027000F090F83530022B0BD13022437F95
:106F900090F821005A43044B9B5823FA00F000F06C
:106FA000010070470020704714C00340002313B550
:106FB0001C4A52F8234094F8211081420ED001332C
:106FC000042BF6D102B010BD0028FBD19DF807308C
:106FD000002BF7D0A068FFF729FEF3E794F83530CF
:106FE000022BEFD12046FFF7CDFF637E2076022BE8
:106FF000E8D194F8323003F0FF02002BE2D102A96D
:1070000001F8012DA068FFF751FE237E1BB194F813
:107010003330002BD8D00023A06884F83330FFF73A
:1070200025FECFE7B81800200F49104B0A782AB97F
:10703000C3E90022C3E9022201220A70002253F8A8
:107040002210814208D00132042AF8D1002153F8DD
:1070500021201AB943F8210000207047013104298A
:10706000F5D10348704700BFC8180020B8180020A9
:10707000027000F010B50446FFF7A4FD002104F1F2
:107080000800FFF773FD014608B1044810BD04F184
:107090000C00FFF76BFD0028F8D0F6E70E7000F04B
:1070A00008B590F8363083B9042203685A619A69AA
:1070B0009207FCD541F21C62102103795B0103F1B8
:1070C000804303F57033995008BD022BFCD1006852
:1070D000036CDB074CBF0521062101F0BBFA02223D
:1070E000014B1A60F0E700BFC0D4034073B50446FB
:1070F0000D46C07EE67F00293AD0012304223146A6
:1071000001F018FC0123022294F82010207F01F0E6
:1071100011FC94F83530022B19D10023012294F888
:107120002110607F01F006FC00230422A07F94F868
:10713000221001F0FFFB012394F82120607F0193CE
:107140000093114601F09AFB002002B070BD032BA2
:10715000FAD10023012294F82110607F01F0EAFBAC
:107160000023042294F82210A07F01F0E3FBEBE758
:107170000B460A46314601F0DDFB2B462A4694F8C1
:107180002010207F01F0D6FB94F83530022B13D16C
:107190002B462A4694F82110607F01F0CBFB2B464A
:1071A0002A46A07F94F8221001F0C4FB94F8212015
:1071B000607F01950123C3E7032BC5D12B462A46E7
:1071C00094F82110607F01F0B5FB2B462A46C9E7F1
:1071D0002DE9F04104460E461746FFF7C1FE8046F2
:1071E000002834D1152001F019F80546E26A938889
:1071F0009BB213B194F8323063B394F8363073BB5A
:1072000023689D6905F002051DB92046FFF748FF78
:107210000025012384F8343094F836304BBB3744D2
:10722000BE42206820D183699A06FCD57DB994F8C6
:10723000363083BB42F21C62102123795B0103F1DB
:10724000804303F570339950082223685A61404601
:10725000BDE8F081002DCAD0FFF750FDC6E7022B34
:10726000D3D123681D6CCDE716F8011B02F046F957
:10727000D6E7022BEBD13744B742206806D142F261
:107280002003026C33EA0202FBD1CFE716F8011BA0
:1072900001F0EFF9F0E7022BD9D12068036CDB078E
:1072A0004CBF0921294601F0D5F90222014B1A6091
:1072B000CDE700BFC0E4034010B5044680B190F8AC
:1072C00032302BB9FFF75EFE10B9A068FFF7AEFCB5
:1072D000002094F832300133DBB284F8323010BD34
:1072E0000048FCE7027000F010B50446A0B190F829
:1072F00032309BB190F83230012B05D1FFF742FEBE
:1073000010B9A068FFF7B2FC002094F83230013BBE
:10731000DBB284F8323010BD0148FCE70148FAE7DF
:10732000027000F0057000F037B590F83550044653
:10733000022D1ED1012190F82220457E837F01FA83
:1073400002F23020154925B900FB031342F2100167
:1073500005E0012D07D100FB031341F210015A5043
:10736000002003B030BD247E00FB0313002CF4D1B9
:10737000ECE7012DF4D1037E73B911238DF80730AA
:10738000FFF79AFF2A460DF107012046FFF720FF7D
:107390002046FFF7A9FFE3E71323EFE700C0034010
:1073A0002DE9F04104468CB0734F04AE0D460FCF6B
:1073B0000FC697E80F0086E80F00102200216846EC
:1073C00029F0FDF9002C00F0D58025B96B4E304630
:1073D0000CB0BDE8F0814FF00208402200212046A9
:1073E00029F0EDF92B6884F8368023602B7C204649
:1073F0002371FFF719FE06460028E8D101272B7FED
:1074000084F83C7084F835302A685D4B9A42DDD1AF
:107410003823A3844FF480135A4A84F83100C4E916
:107420000423D5E9092384F83000A2628DF80670A0
:107430008DF8077010805080908084F83000E362EF
:10744000188058809880AB6884F8310006936B8A66
:1074500084F83300ADF82030AB8A3946ADF81E30E1
:10746000AB7D3A208DF81C30AB698DF81D800993F7
:10747000CDF82CD000F0E6F93946A08C00F0E2F906
:107480002B793946002B5CD0352000F0DBF93946EA
:107490004FF4C06000F0D6F909214FF4C06000F04D
:1074A0005DFD0E21A08C00F059FD0222364B2E7B93
:1074B0001A60A87B697B46EA00421A61EA7B41EACE
:1074C0000247DF60E07784F820206B7FE676217743
:1074D0006377AB7F012184F82130EB7F2046A377CF
:1074E00095F8203084F82230FFF700FE0646002889
:1074F0007FF46DAF00F07BFE2F7F8046032F26D1F7
:107500000122224B1A6095F82010EA7F42EA0142DC
:107510009A60A97F6A7F42EA01425A608DF8007042
:1075200006238DF810302B79286804A9FBB101F0EF
:1075300092F92046FFF79EFD0646404600F05DFEAC
:1075400045E74FF4806000F07DF90D21AAE7022F96
:10755000E6D194F821000E49FFF72EFCFFF71EFC40
:10756000A676267667762046FFF7DEFED8E701F09E
:107570006FF9DEE7074E2AE760120300037000F0A0
:107580000000034A01001000C0C40340C0D40340FF
:10759000AD6F0000027000F00B4B30B51B788BB163
:1075A000012000230546094C54F8232032B192F8FB
:1075B0003C10022904BF084682F83C500133042BDA
:1075C000F2D130BD0120FCE7C8180020B818002017
:1075D000054A1368DB06FCD44FF04023D3F884003F
:1075E000C0F38110704700BF8440004038B5104B95
:1075F0000546D3F820310C4603F00303022B0BD0D1
:10760000032B0DD0012B0FD1FFF71AFA052305B17B
:10761000286004B1237038BDFFF748FA0323F6E76A
:10762000FFF75CFA0223F2E700231846EFE700BFFA
:107630000080004073B50D4600210E4B0191D3F838
:107640008041064604F00304012C08D0022C0BD024
:107650000EB1019B336005B1297002B070BD01A865
:10766000FFF7C4FF0D21F3E7FFF738FA2146019039
:10767000EEE700BF0080004038B5174B0546D3F851
:1076800024310C4603F00703013B052B20D8DFE82B
:1076900003F0030F171B0B13FFF7D2F9052305B1F6
:1076A000286004B1237038BDFFF7CAF90623F6E756
:1076B000FFF7FCF90323F2E7FFF7F8F90423EEE7FD
:1076C000FFF70CFA0223EAE7FFF706FA0723E6E7DB
:1076D00000231846E3E700BF0080004038B5104B98
:1076E0000546D3F840310C4603F00303022B0BD0C0
:1076F000032B0DD0012B0FD1FFF7F4F9092305B1AE
:10770000286004B1237038BDFFF7F2F90823F6E7CB
:10771000FFF7EBF90A23F2E700231846EFE700BF73
:107720000080004038B5134B0546D3F800320C46B4
:1077300003F00703013B032B18D8DFE803F0020A2C
:107740000E12FFF7CFF9092305B1286004B12370A9
:1077500038BDFFF7CDF90823F6E7FFF7C6F90A238E
:10776000F2E7FFF78DF90C23800AEDE700231846B6
:10777000EAE700BF0080004038B5104B0546D3F85B
:1077800040320C4603F00303022B0BD0032B0DD029
:10779000012B0FD1FFF7A6F9092305B1286004B129
:1077A000237038BDFFF7A4F90823F6E7FFF79DF92A
:1077B0000A23F2E700231846EFE700BF00800040ED
:1077C00038B5104B0546D3F860310C4603F003037F
:1077D000022B0BD0032B0DD0012B0FD1FFF782F919
:1077E000092305B1286004B1237038BDFFF780F983
:1077F0000823F6E7FFF779F90A23F2E70023184692
:10780000EFE700BF008000400D4B10B4D3F82032EA
:107810000A4603F00303012B0AD0022B0CD008B157
:10782000002303600AB1002313705DF8044B704716
:107830005DF8044BFFF7DABE5DF8044BFFF74EBF6F
:1078400000800040430910B507D0012B0FD00A4C2F
:107850000A4A022B14BF2346134600F01F0041B111
:1078600003F58053012202FA00F0186010BD044BAA
:10787000F3E703F50053F5E76082004068800040BD
:1078800064800040B0F5007F18D005D880B1B0F515
:10789000C07F0DD000200FE0B0F5207F14D0B0F5F0
:1078A000607FF7D10B4BD3F88000C0F3011003E0E9
:1078B000084B186FC0F3033001307047054BD3F805
:1078C0009000C0F30460F7E7024B186FC0F380200C
:1078D000F2E700BF00800040002313B53E280446B5
:1078E000019300F0B18042D82B2828D01FD823283C
:1078F00013D00CD8202849D004D8002846D00198AD
:1079000002B010BD212808D022283FD0F7E729284F
:1079100000F290802828C0F08380FFF7B1F802467B
:107920004FF42070FFF7AEFFB2FBF0F071E03128AA
:1079300010D82F28F1D22D2800F0818056D9FFF7DA
:107940009FF802464FF42070FFF79CFFB2FBF0F067
:1079500040085EE03C2855D83A28DED2382864D06A
:107960003928CCD1002101A8FFF786FEC7E7B0F582
:10797000007F50D01BD8522852D00AD84D2805D0AD
:1079800002D83F28C9D0BAE74F28B8D3FFF778F814
:107990003FE080283BD004D8A0F16004012CF5D949
:1079A000ADE7B0F5807F21D0B0F5C07FADE7B0F591
:1079B000A06F3AD010D8B0F5607F2CD006D8B0F5C3
:1079C000207FAAD0B0F5407FB9D098E7B0F5806F9E
:1079D00026D0B0F5906FC4E7B0F5D06F2FD00AD89D
:1079E000B0F5B06F26D0B0F5C06F88D1002101A8E6
:1079F000FFF774FE83E7B0F5E06F25D0B0F5F06FC8
:107A00007FF47DAF002101A8FFF7DAFE77E7FFF7EB
:107A10001DF8019073E7FFF719F80246204681E749
:107A2000002101A8FFF7E2FD69E7002101A8FFF7A7
:107A3000EBFE64E7002101A8FFF7FCFD5FE70021F2
:107A400001A8FFF76FFE5AE7002101A8FFF794FE97
:107A500055E7000008B58020FFF73EFF044B984231
:107A60009FBF42F270034FF48031024AD15008BDEB
:107A7000005A62020080004038B5054641F26803B2
:107A80004FF400300D4AD0500020FFF7FBFE41F6C6
:107A900071320B4B6843DC690A4DDA639A68A8427D
:107AA00004F4803422F4401203D9012918BF42F4AF
:107AB00080129A600CB10022DA6338BD0080004069
:107AC00000000340005A620208B5FEF7EBFFBDE874
:107AD00008400021FFF7D0BF002307B5B0F5807F35
:107AE0008DF8073010D031D82D287DD012D82A2813
:107AF00043D007D82438032833D99DF8070003B0B2
:107B00005DF804FB2C28F8D10DF107010020FFF7E8
:107B1000E5FDF2E73E2840D009D8382874D03D284A
:107B2000EBD10DF107010020FFF74AFEE5E75228EF
:107B300017D08028E1D1374B1B6F03F00703013BBF
:107B4000032BDAD8DFE803F04844425CB0F5C06F9D
:107B5000DAD018D8B0F5906F40D008D8B0F5806F63
:107B6000CBD10DF107010020FFF740FDC5E7B0F5CF
:107B7000A06F49D0B0F5B06FBFD10DF10701002063
:107B8000FFF758FDB9E7B0F5F06FCAD00BD8B0F5E4
:107B9000D06F29D0B0F5E06FAFD10DF10701002013
:107BA000FFF7EAFDA9E7B0F5006F17D0B0F5086F51
:107BB000A3D1184BD3F8003103F00303022B19D0E3
:107BC000032B1BD0012B1DD1FEF770FF032300E018
:107BD00005238DF8073090E70223FAE70DF107013E
:107BE0000020FFF749FD88E70DF107010020FFF7AE
:107BF00099FD82E7FEF77CFF0823EAE7FEF76CFFBA
:107C00000723E6E70123E4E70DF107010020FFF772
:107C1000FBFD72E70080004008B5FFF75DFF082814
:107C200004D0092805D04FF6FF7001E0094B1888F1
:107C300008BD41F264034FF40011074A4FF6FF708C
:107C4000D150064B5B6A13F0010F18BF4FF4FA7066
:107C5000EEE700BF380C00200080004000400240EA
:107C600070B504468020FFF737FF032800F08680B8
:107C700041F264034FF40021454AD15045F60E030A
:107C800002F58042C2F88030022141F22803D1502F
:107C900042F228030121D150916D11F48031FBD1C2
:107CA000637820781B0543EA0063A079657C034371
:107CB000E07843EA0043207943EA0033607943EAFD
:107CC000801313619369E07A03F000430343E07982
:107CD00043EA8063207A43EA0063607A43EA004320
:107CE000A07A43EA00239361637B126A002B18BFDA
:107CF0000821207B22F00D0243EA020343EA8003BD
:107D000041EA0301A27B234B4FEA42161962207C11
:107D100035D1996AE27B21F0330141F00101314311
:107D200041EA0211996219461B4A9E6D32EA060623
:107D3000FBD1022241F228069A511A658B6D5B0035
:107D4000FCD40B69A27823F4700343EA02530B615D
:107D50004FF0004241F21803CA5018B942F228030A
:107D60000222CA5025B942F228030121094AD15002
:107D7000A37C1BB1074B094AC3F8802070BD9A6AE7
:107D800022F033022A43324342EA40029A62EFE78A
:107D90000080004000C0004003000140F1A7FFFF49
:107DA000F0B541F264034FF480071B4E41788478AC
:107DB000C2780578F7504FF4D156184B02275E620F
:107DC00041F204064F299F5142F204064FF0010789
:107DD00028BF4F219F511E69F603FCD441EA0521BB
:107DE00059611201417942EA04220A43017942EAC7
:107DF00041029A60C2798179120142EA4112417AC4
:107E00000A43017A42EA41025A60827A12B16FF45F
:107E1000D1525A62F0BD00BF008000400000024015
:107E2000014B1880704700BF380C002010B5044685
:107E3000FEF73CFE41F264034FF40011094AD150B1
:107E40000222094B5A609A6812F48032FBD1012C4D
:107E500018BF5A624FF0000208BF5C62024B5A60C2
:107E600010BD00BF00800040004002400029CCBF90
:107E700001210021FFF700BE10B50446FFF724FEE4
:107E800000F054F841F270034FF480310C4A013C89
:107E9000D150106F20F4704040EA04301067FEF7B4
:107EA000EFFD0446FFF794FBC0F102012046FFF707
:107EB000DDFF00F041F8BDE81040FFF7CBBD00BF8B
:107EC00000800040B0F5007F1AD004D850B1B0F562
:107ED000C07F07D07047B0F5207F1CD0B0F5607F21
:107EE00003D070470846FFF7C7BF0F4A0139D2F8E1
:107EF000803023F0300343EA0111C2F8801070474C
:107F0000094A0139D2F8903023F0F85343EA01616D
:107F1000C2F890107047044A0139136F23F480634C
:107F200043EA8121116770470080004002214FF42D
:107F30002070FFF7C7BF000008B54FF4C070FFF70F
:107F4000CBFCBDE80840044988428CBF02210121D6
:107F50004FF42070FFF7B6BF80F0FA02B0F5807FD3
:107F600070B50C460DD043D82D2800F0058119D8E6
:107F70002A2861D003D82438032845D970BD2C287D
:107F8000FCD1083CE4B2022C8CBF00218B4B8C4A04
:107F900098BF195DD2F8403123F003030B43C2F8B8
:107FA0004031EBE73E2861D015D8382800F0F58045
:107FB0003D28E3D1083CE4B2022C8CBF0021814B68
:107FC0007F4A98BF195DD2F8603123F003030B4359
:107FD000C2F86031D2E7522816D08028CED18B1E4D
:107FE000052B00F2B580DFE803F0B09DB36AB3ADB6
:107FF000B0F5C06FC5D02ED8B0F5906F00F0AB8053
:1080000013D8B0F5806FB9D1023CE4B2032C8CBF19
:1080100000216D4B6A4A98BF195DD2F8203123F0D8
:1080200003030B43C2F82031A8E7B0F5A06F00F0BE
:10803000B480B0F5B06FA1D1022C03D0A4F10D0330
:108040005C425C415E4AD2F8803123F003031C435A
:10805000C2F8804192E7B0F5F06FABD017D8B0F519
:10806000D06F00F08980B0F5E06F87D1083CE4B2B2
:10807000022C8CBF0021554B514A98BF195DD2F894
:10808000403223F003030B43C2F8403276E7B0F5E9
:10809000006F60D0B0F5086F7FF470AFCC1EE4B213
:1080A000052C8CBF00214A4B454A98BF195DD2F878
:1080B000003123F003030B43C2F800315EE70025D3
:1080C00002260121022000F08BF9FFF7FDFCFFF7EB
:1080D0002DFF4FF4803141F27003394AD150136FB4
:1080E00023F0070333431367FEF7CAFC0646FFF786
:1080F0006FFAC0F102013046FFF7B8FE01210020FF
:1081000000F0AAF9FFF718FFFFF7A4FC002D7FF499
:1081100035AF032C7FF432AF42F2280301212D4A00
:10812000D1502BE741F264034FF40021244A032687
:10813000D15041F228020121264B9D6A9950C5F386
:108140004005BEE700250426BBE700250126B8E769
:1081500000252E46B5E7023CE4B2052C8CBF002179
:108160001D4B174A98BF195DD2F8243123F007033D
:108170000B43C2F8243101E7083CE4B2042C8CBF65
:108180000021164B0E4A98BF195DD2F8003223F039
:1081900007030B43C2F80032F0E60D2C0CD00E2C76
:1081A0000CBF02210021064AD2F8203223F003033B
:1081B0000B43C2F82032E1E60121F4E7A0120300EC
:1081C00000800040A01203009C120300A0120300D4
:1081D000AE12030000C00040A3120300A912030066
:1081E000EFF3108072B6704700B962B67047EFF3D4
:1081F0001180302383F31188704780F31188704712
:10820000054A410900F01F0352F82100D840C0433D
:1082100000F00100704700BF00E100E010B5044627
:10822000EFF31083DB0733D4FFF7EAFF00282ED1EA
:10823000002CABBF04F16044164B04F5614404F01C
:108240000F04ACBF94F800231A5D1209EFF31183F9
:1082500013B1B2EB131F1BD20F4C6368C3F30803B7
:10826000ABB1103BDBB259B20029B5BF03F00F032D
:1082700001F16043043B03F56143B6BF1B1993F85A
:108280000003187E0009824234BF0020012010BD87
:108290000120FCE714ED00E000ED00E0024B9B68DC
:1082A00003EB80000164704700ED00E0F0B50024AE
:1082B000059D9DF818709C4202D10C4B9A60F0BD50
:1082C00037B18C420ED250F8246042F8246005E0A9
:1082D0008C4252F8246003D2002EF4D00134EAE735
:1082E000002EFBD142F82450F8E700BF00ED00E07B
:1082F00010B5234B70B9186041F264014FF400309F
:10830000204A505020494968012902D1D2F8002161
:108310001A6010BD1B68002BFBD01B4C6268012A41
:10832000F7D0184A8020C2F80031FFF7D5FB0528A6
:1083300020D14FF4C070FFF7A5FA0128044604D1FC
:1083400002214FF4C070FFF7BDFD42F21002072179
:108350000D4B995041F20402012199501A69D2073C
:10836000FCD5012CD5D12146BDE810404FF4C0709A
:10837000FFF7A8BD41F204030122E250C9E700BFA4
:10838000CC1800200080004000C0014010B5044619
:1083900010B10020FFF7ACFF0C4A136943F004034F
:1083A000136102F0C7FAFFF71BFF28F089FDFFF702
:1083B0001BFF02F0D3FA24B1BDE810400120FFF703
:1083C00097BFBDE81040FEF75BBB00BF00ED00E0CB
:1083D000FFF7DCBF0020FFF78BBF0120FFF788BF4E
:1083E00038B504461A4A1368D806FCD44FF0402327
:1083F000D3F88430C3F381139C4228D0FEF726FBC8
:10840000012C054602D12146FFF730FDFFF7E8FEBB
:108410004FF000710F4A4FF0402311604FF480621B
:10842000611E8A401A675A6E910103D4D3F88420E2
:10843000920609D5FFF7D8FE022C08D12846BDE8E0
:1084400038400021FFF712BDD3F88420EBE738BD98
:10845000844000406460004010B50C4608B9FEF747
:10846000F5FA074B21461B783BB1064B984204D8DE
:108470000120BDE81040FFF7B3BF0220F9E700BFBD
:10848000D0180020005A62020278034B012100201C
:108490001A70FFF7E1BF00BFD01800204FF0402254
:1084A000536F417823F4407343EA012353677047C5
:1084B0004FF04022D36E017923F030030B43D36693
:1084C0007047000041F264034FF00041174A10B5B5
:1084D000D150012141F204024AF6CD34144B995097
:1084E0005A6C1C640A4088B99868C40705D542F2E2
:1084F00008001950D96AC807FCD542F204010120CE
:10850000585012B10A4B0B4A1A6410BDD96A0907B8
:10851000FCD442F224012020585041F208010120ED
:10852000585003494B6A9B06FCD5EAE7008000409F
:10853000004009403254FFFF38B54FF0004141F28E
:108540006403184A184CD150012241F20403E2504E
:108550004AF6CD33656C236443781540934013434A
:108560004FF04022D363A368827823F0740343EA78
:108570000213C278002A14BF042200221343A3600E
:108580000279837943EA022323614279C37900782F
:1085900043EA02236361FFF795FF0DB1034B2364A8
:1085A000012038BD00800040004009403254FFFFE8
:1085B000C36C0B42FCD1704708B50A2350210363FA
:1085C0000246FFF7F5FF136C9907FCD1136C1B06ED
:1085D00004D442F204030121D15008BD536BF5E7E6
:1085E00038B50C4641F204030121C15040F2FF713D
:1085F0000246FFF7DDFF04F00F0578210563FFF762
:10860000D7FF04F00103610748BF43F00203116C78
:1086100001F003019942FAD138BD0000436810B55A
:10862000DB07044601D5FFF7C7FF002341F2020232
:10863000E360A360226142F244020549E3616361A1
:10864000A36123626362E362A364A150A36210BDCD
:108650007F370C0121B94368DB0703D5FFF7ACBFB7
:10866000FFF7BEBF7047036C1B06FCD5406BC0B262
:108670007047036C5B06FCD5C163704738B5044690
:10868000154639B9184884420CBF38200020FFF73E
:1086900023F901466368A36803F0E003402B1DD073
:1086A00003D8FBB1202B06D038BD602B18D0802B0F
:1086B000FAD1012300E008236B434901B1FBF3F138
:1086C0000A4A203902EAC10220460121FFF770FF61
:1086D0000121A262BDE83840FFF76ABF0623EBE73D
:1086E0000423E9E71023E7E70000034AF8FF7F00CF
:1086F000436870B504460D4616461BB140F2FF7143
:10870000FFF756FF2046FFF789FFE9896B7B226957
:108710000B43298A22F44C520B4322F003021343E9
:108720002361A2682B7B297E22F0804222F0E202A4
:108730000B4313436A691343A360AB681BB9A36877
:1087400043F00043A360EB69002B50D0A268197A74
:1087500042EA8152A260A268997A42EA4142A2604A
:108760009A88A16802F4C0420A43A260A2685978BC
:1087700042EA8102A260A268597B42EAC102A26079
:10878000A268997B42EA0112A260A268997842EA43
:108790008122A260DA799979520242EA8122E2606A
:1087A0001A7802F0FD01012908BFE168A2F1020276
:1087B00004BF41F00401E160012A4FF0010294BFBF
:1087C000204921490A605A7A04F581510A601AB198
:1087D000E26842F40062E260DA7A42B1E26842F4AE
:1087E0000042E2601B7B194A03F00F03136036B1AD
:1087F00096F82030B3B141F218030122E25005216E
:108800002046FFF7EDFEAA6812B16968FFF736FF50
:1088100029782046FFF71EFF236CDB4313F4405FEB
:10882000FAD170BD96F8223096F8211062690B4398
:1088300022F0090243F00103134341F21402A35052
:10884000DDE700BFC0D40340C0E403408090034094
:108850000022FFF74DBFFFF7FBBF70B5054614467A
:108860000E46FFF7BDFC2A68544004EA0601514059
:108870002960BDE87040FFF7B7BC0000072A2DE96A
:10888000F04116461F4601F003084FF003042DD8AF
:108890009500AC4000FA05F221461C48FFF7DDFFC9
:1088A00021461B4808FA05F2FFF7D7FF194A1A4B71
:1088B0009DF81800002F18BF13460122B2401A601D
:1088C0001649174B002818BF0B461A6042F2204386
:1088D00014499DF81C00CA50134B01F5A1510431F5
:1088E000002818BF0B461A60BDE8F081A2F1080508
:1088F000AD00AC4000FA05F221460C48FFF7ADFF91
:1089000008FA05F221460A48CEE700BF00C403403A
:1089100008C4034010D4034010E4034014D40340BF
:1089200014E4034000C0034024E4034004C40340B3
:108930000CC40340F0B54AB1012530241D4E8D40D2
:1089400004FB00640BB341F21006A55130244443EC
:10895000072904F1804404F5703419D80F2765689D
:108960008E00B74025EA070502FA06F63543656032
:1089700052B9012202FA01F130220E4C02FB0040F2
:10898000A3B141F21003C150F0BD42F21006DCE782
:108990000F2701F18045083DE668AD00AF4026EAAB
:1089A000070602FA05F53543E560E1E742F21003F8
:1089B000E9E700BF00C003404369DB01FCD442F299
:1089C00004030122C250704710B5052A0DD8DFE814
:1089D00002F00303030F0F0F11F4000218BF4FF052
:1089E0007F4221F07F4313430C0E0360047110BDDE
:1089F00021F0FF03CCB2F8E7F8B504461546FFF7BF
:108A0000DBFF0B782D4E03F007024B78002B8B78A1
:108A100018BF08204FEA031303F0300343EA0203B0
:108A2000CA7808BF0020002A14BF4FF480720022C9
:108A300003431343C4F88030E26A0B7922F0170233
:108A400003F0070313434A792846120102F010028B
:108A500013430022E362B44223D1102A0DD141F224
:108A6000040301260020E650034693421BD18B7974
:108A7000A0610BB10823E360F8BD837807881B046D
:108A800003F480333B43C7780530002F14BF4FF405
:108A9000003700273B4302F1280744F82730013212
:108AA000D9E70022DBE703EB83072F443F7917B1B7
:108AB00006FA03F738430133D7E700BF0040004A06
:108AC00041F204030122014670B5C250284B294AE5
:108AD000C3604B691340FCD18B61C1F898304B697E
:108AE00013F4401FFBD14B69DA052FD48B6F6BBB9E
:108AF0004B699B052CD4D1F888404CBB0846CB6F02
:108B0000D1F88C30FFF758FF30238C600C61CC62B9
:108B10000C620B67C1F88030174B42F2600099423B
:108B20000CBF022300232646144D9C4213D1002380
:108B30001846114A914201D1102B13D142F224025E
:108B40000F4B8B5042F228028B5070BD4B6FCAE71F
:108B5000D1F88430CCE701EB041290640134156540
:108B60005665E2E703F1280441F824000133E1E708
:108B700012000200520001000040004A00C00280C2
:108B80008F330F8008B531B92A20FEF7A5FE0028E3
:108B900014BF0146012101F57420054B00F23F206E
:108BA000B0FBF3F001387F2828BF7F20C0B208BD9A
:108BB00040420F0010B50A4C10468C4228BF0C46AC
:108BC00012B92A20FEF788FE631E1844B0FBF4F0A9
:108BD00018B10138032828BF0320C0B210BD00BF60
:108BE000005A620210B50F480F4C002B08BF044614
:108BF0008C4228BF0C461AB92A20FEF76DFE0246A9
:108C00009DF808000130B2FBF0F0621E1044B0FB8A
:108C1000F4F000B1013840F2FF31884228BF084625
:108C2000C0B210BD80969800404B4C002DE9F04F2B
:108C30002DED048B06468DB0DFF854C306AF0C460D
:108C40001546BCE80F000FC79CE80300002287E828
:108C50000300C3493046FFF7ADFF94F805B08345E4
:108C600038BF83463046FFF7A7FE21795FFA8BFBBA
:108C700011B9FFF787FF0146E3784FEA0B701B013C
:108C800000F0E04003F030030343080400F4FE006A
:108C9000184323780BB140F0020063780BB140F029
:108CA0000400A3780BB140F00800DFEDAE8A4FF06E
:108CB000000AB0EE688AE388B06022893361638974
:108CC00043EA02433362A84B9E4202D1BAF1020F3B
:108CD00008D141F204030122F2500DB0BDEC048B27
:108CE000BDE8F08F00222C78A048A149AF689442DB
:108CF00018BF01462346CDF800B03046FFF772FF9B
:108D0000FFB287424FEA0A1138BF07467018836CDA
:108D1000DFF880C204F0030E03EA0C0C4EEA0C0EDE
:108D200095F801C02A794FEA8C0C0CF01C034EEA2E
:108D3000030CAB784FEA024E5B01DBB24CEA030353
:108D400095F803C00EF4E02E4FEA0C3C0CF4E04C16
:108D500043EA0C0395F810C043EA0E034FEA4C5C5B
:108D60000CF4600C43EA0C0395F805C04FEA0C7C48
:108D70000CF0405C43EA0C038364836CB446C3F399
:108D80000233013B7B48042B1DD8DFE803F01C1C99
:108D900003151900D0F880311B0C012C16D9022CB8
:108DA00000F00B81744B4FEA0A12C7F309079F507A
:108DB0000AF1010A143586E7D0F884319BB2ECE75A
:108DC000D0F88431E8E7D0F88031F7E70CEB010305
:108DD0009A6CC2F30232531E012B664B70D8DFED42
:108DE000617AD3F8802192B201F1944101F580417A
:108DF00013048B6C22F4C040C3F3820C4FF00103C8
:108E00000CF1010103FA01F307EE103A4FEA80403A
:108E1000B8EEC76A48BF40F000405649B6EE007A47
:108E2000BCF1000F79D1002C74D1D1F88C311BB278
:108E300006EE903AF8EEE66A77EEA67AD5ED036A8A
:108E40009FED4E5AF8EE666AC6EE855AB7EE045AA2
:108E5000C5EE256ADFED4A5A66EEA76AC5EE867A48
:108E60009FED486A67EE867AB1EE006AB0F1004F76
:108E700046EE867A0BD09FED446A06EE902A77EE96
:108E8000867AFAEEE86A16EEA76AF0EE467AF5EE12
:108E9000C07AF1EE10FACABFF1EE677A77EE677A20
:108EA00077EEC77AFDEEE77A17EE903A374A9342AB
:108EB0007ADD10430AF105032B4A1B01D05071E7FC
:108EC000032A0ED1D3F88021120C3CB9D3F88C318F
:108ED0001B1407EE903AF8EEE77A85E7D3F8943161
:108EE000F6E7042AD3F8842109D192B224B9D3F841
:108EF0008C311B145B00ECE7D3F89431F9E7120CCA
:108F00002CB9D3F88C311B1403EB4303E1E7D3F8FE
:108F10009431F8E7D1F8943189E7ACB9D1F89031C0
:108F20001BB206EE903AF8EEE66A76EEE77A66EE67
:108F3000075A104BC7EEA56AD3F888311BB207EE6B
:108F4000903AF8EEE77A77E7D1F898311BB206EE5F
:108F5000903AF8EEE66A76EEE76A77EEA67AE6E70A
:108F6000005A6202000000000040004A404B4C00E2
:108F7000809698000080E00F5440004A00007A4438
:108F8000000080430000204400000049FFFF010072
:108F9000B4120300008F18CF0000B8420000003860
:108FA000E71B753F0000004713F5003FAABFC3F35E
:108FB000110340F4003018437CE7042A06D8DFE8A8
:108FC00002F0B303AAADB000F7EE048A01F19442B7
:108FD00002F58042926C0CA8C2F3421200EB8202AE
:108FE00012ED066A5FED147AF7EE006AB4EE676A76
:108FF00007EE903A76EE266AF1EE10FA1FED197A36
:10900000F8EE677A14BFC6EE265A5FED1B5A67EE7C
:10901000877A67EEA57A5FED1D5A67EEA57AF5EEC1
:10902000C07AB6EE009AF1EE10FA4CBF77EEC97A2C
:1090300077EE897A01F1944404F58044226DFDEEC7
:10904000E77A0022226517EE902A12F4004F226D73
:10905000F0EE479A18BF42F000422265059317EEE2
:10906000903A334A216D02EA83420A432265314A2B
:10907000F7EE045AD2F88811D2F88821C5EEA87A02
:1090800013B207EE103AB8EEC77A37EE087A27EE39
:10909000877ADFED297AC7EE865AC5EEA67AF1EE19
:1090A000006A47EE267A9FED257A77EE877A17EEEB
:1090B000900A26F0EDFD059BCDE9020107EE903AFE
:1090C000B8EEE77A67EE297A17EE900A26F0E0FD0F
:1090D00001F100490246DDE902014B4626F030FE6F
:1090E0000022174B26F076FC27F00CF907EE900AC9
:1090F000F5EEC07AF1EE10FA4CBF77EEC97A77EE52
:10910000897AFDEEE77A17EE903A226DC3F31103E8
:109110001343236546E6F0EE048A57E7F0EE088A2B
:1091200054E7DFED088A51E7DFED078A4EE700BF1D
:109130000000FC7F0080E00F000080480000004934
:10914000000020419A99194048E19A3F10B5D1F8A2
:109150008020D1F8841002F00702FFF735FC10BD23
:10916000054B064A00290CBF19461146012303FA94
:1091700000F00860704700BF4010044040200440E9
:1091800010B5012104462020FEF75CFB01212120BF
:10919000FEF758FB0122114B5A60227812069A60A2
:1091A0006178A27842EA01429A61FF229A62002223
:1091B0009A631A644FF000424FF0FF315A6542F251
:1091C000500299504FF40011054AC2F88011E3781B
:1091D0001B01DBB282F81533116010BD00000440A2
:1091E00000E100E0036C0B42FCD1704710B50C4667
:1091F00060210246FFF7F6FF14B10123D36010BDD2
:109200000223FBE70A4641F20403012110B5C150D5
:10921000137804463BB90369DB0704D54021FFF707
:10922000E1FF0223C36053789078002B14BF4FF402
:1092300080510021D36800B91BB141F4007103B122
:109240006362D3780BB141F4807113790BB141F0B3
:10925000400153790BB141F08001D37990791B0122
:1092600043EA8003107A03430B43A360137843B1AE
:109270002369DB0705D420212046FFF7B3FF012334
:10928000E36010BD41F268034FF40031054AD1504C
:1092900041F67132044B0121DA6342F20C0299501B
:1092A000704700BF008000400000034041F671326B
:1092B000074B0121DA6342F20C02995000224FF46D
:1092C0000031DA6342F26803024AD150704700BFAE
:1092D0000000034000800040232811D005D8012859
:1092E0000AD022280AD00020704725280CD009D3A4
:1092F0003528F8D1062070470320704701207047B9
:10930000022070470420704705207047232805D8A5
:10931000222807D2012814D008467047252801D9F1
:109320003528F9D10429F7D8DFE801F00E0907053F
:1093300003000421F0E70321EEE70221ECE701211D
:10934000EAE70129E8D0E7D20021E5E738B5C2F322
:109350000625044602F0070241B942F440220B4BB5
:1093600042EA0522063443F8242038BD1146284637
:10937000FFF7CCFF03462846FFF7AEFF43EA002085
:10938000024B123443F82400EFE700BF0080034093
:109390000A4392B20021FFF7D9BF3AB122F003028B
:1093A00002F1804202F5603209B910607047000294
:1093B000FBE7800000F1804000F5603010B5846963
:1093C0000B0643EA024224F0706323F47023890001
:1093D0001A4301F18041826101F560318B6923F408
:1093E000702343F440238B6110BD4FF090435A68C3
:1093F00012B19A6A002AFAD170470000CB784A78F5
:1094000010B55B010C7843EA82030A79234343EAEF
:1094100002130C22424302F190421363012C02BF5B
:109420008A78024B43F8202010BD00BFE88003403B
:1094300008B54FF090435A6802B960B15B680BB150
:10944000FFF7D3FF4FF0904130B10120074B186078
:10945000FFF7CBFFC86008BDFFF7C7FF0223CB6053
:10946000FFF7C3FF0122024B1A60F4E70410004823
:10947000042000484FF090435B6870B50BB1FFF7D4
:10948000B4FF0121104B0679196083784578002BD1
:10949000C37814BF02240024002B14BF042200222E
:1094A0004379DB0043EA06132B43234313434FF076
:1094B00090429360054B19600378002B14BF0B4654
:1094C0000223D36070BD00BF042000480410004890
:1094D00041F264034FF48031064AD150064B5B6978
:1094E000C3F38512827003F03F021B0B42700370BE
:1094F000704700BF0080004000C0074083695B06E2
:10950000FCD5C1637047000038B50446054D1FF017
:1095100022FE0FCC0FC594E8030085E8030000206D
:1095200038BD00BFD418002047F6FF739A42F0B54B
:109530005ED002295ED8304BCE0013F83110981956
:109540000129857819460DD1C3785B1B23B1416889
:1095500031F91310914202DCE818C0B2F0BD013BB2
:109560001BB2F3E740680028F8D0B0F9003093420E
:1095700004DBB0F902309342B8BF13468288FF2A59
:1095800019BFC8242827B0F90640B0F90870A4EB29
:1095900003040CBF0122002294FBF7F414448A193F
:1095A000567824B2721EA242A8BF22464FF47A77A0
:1095B00000EBC201CC888968013213FB041112B29E
:1095C00021EAE17101F5FA71B242B1FBF7F104DA77
:1095D00000EBC204A4888C42EAD200EBC20232F84B
:1095E000040C884228BF0846A84238BF2846B4E782
:1095F000FF20B3E70020B1E7D41800200229F0B51E
:1096000043D8244B03EBC10413F831306668012BB7
:109610000BD1E178A378914294BFC3EB0103C3EB74
:109620000203DBB236F91300F0BD76B3B6F90200DF
:109630008242F9DDE378B6F90050934227D9002140
:1096400064780436013CE4B297B2CBB29C424FEA54
:10965000C10306D906EB030CBCF808C00131BC45B8
:10966000F3D2F1184FF47A7353434A68B1F90240C8
:109670009B1A022294FBF2F2134493FBF4F39D42F3
:1096800005DB9842D0DC18B2CEE70348CCE7284689
:10969000CAE700BFD41800200080FFFF08B50448C7
:1096A000FFF732FFBDE8084001201FF056BD00BFA4
:1096B0002C1B03007FB51422002101A827F07FF89E
:1096C000044B01A94FF0FF3002931FF0B3FD07B028
:1096D0005DF804FB006A180007B56B46054A106880
:1096E000516803C36846FEF727FF002003B05DF80A
:1096F00004FB00BFCC1203004FF0402213B500243E
:10970000536F684643F00103536700948DF804409B
:10971000FEF7CEFE204602B010BD000070B586B048
:1097200001AA1546114B03F1100614461868596832
:10973000083303C4B3422246F7D14FF6FF721988AB
:109740009B782180A3700A4B0A481B88934208BF6C
:109750008C23DBB28DF80D308DF80E30FDF7ACF9AF
:109760002846FEF77DFA002006B070BDD412030033
:109770000001E00F00F0490208B50120FEF756FB9A
:10978000002008BD1FB50B4A01AB1068516803C328
:109790001189927A19809A70192301A88DF80530E1
:1097A000FEF7FEFA6420FEF73BFB002005B05DF8F3
:1097B00004FB00BFE71203006FF00402502110B554
:1097C0000A480B4C12F0800FD3B21BBF03F00F03FB
:1097D000043BA3181B1802F101020CBF83F800130D
:1097E0001976402AEED1002010BD00BF00ED00E048
:1097F00000E100E000F07AB838B501F013FA044651
:10980000D8B901F00BFB4FF4167358430C4B00F51D
:10981000742000F23F20B0FBF3F02246094B0A4DC2
:1098200018600A4B196845F8220001320A2AFAD159
:1098300000EBC002084410441860204638BD00BF49
:1098400040420F0028190020F8180020F4180020CA
:1098500070470000012208B5034B1A7001F0D2FADC
:10986000024B186008BD00BFF0180020241900202A
:10987000F8B5144C23781BB301F0C4FA124B134D06
:109880001B68134EC01A08BF0120124B124F1860FC
:109890002B7856F8232046F82300111A3A680F480F
:1098A000521A0A213A600932B2FBF1F20133DBB2FB
:1098B0000260B3FBF1F201FB12332B700023237023
:1098C000F8BD00BFF0180020241900202019002046
:1098D000F8180020EC180020F418002028190020A7
:1098E000014B1868704700BF2819002020230D493C
:1098F0004FF4002081F82C3341F264030A4AD0501F
:1099000042F27400094B0A4A1A5042F270001A508F
:109910004FF48050C1F88401486041F274015A50FC
:10992000704700BF00E100E00080004000C0004040
:10993000010000A0054B064A1B78916DC90700D5B0
:1099400013B10028F9D17047012070474019002059
:1099500000C000402DE9F843914B1E6F9D6A9C6A40
:10996000F10705F0020504F0010452D542F270023D
:1099700001279F508B4ADFF8488292F80090B9F196
:10998000000F00F0F9800021117098F80020BA4211
:1099900000F2ED8042F2280202219F5041F228029B
:1099A00099509A6DD203FCD47F495A6B096822F40E
:1099B00070620A435A637D487D4A9969006812685B
:1099C00021F47F01024321F47F410A439A617948DF
:1099D000794A19691268006821F47F6121F00F014A
:1099E00002430A431A6175499A69096822F0FF0225
:1099F0000A439A610222002D40F0B38042F228010E
:109A00005A50674B0122002C00F0AE8041F2280131
:109A10005A5016F000517CD042F270024FF0010C07
:109A20005F4B624F995066495E4ADFF890E182F8D9
:109A300000C00A7862440A705A6B5B4902F4706095
:109A4000086098695A4900F47F400860996901F4F8
:109A50007F0139609F69FFB2CEF800701F69DFF89F
:109A600058E107F47C67CEF800701F69DFF844E125
:109A700007F03F07CEF8007042F2280743F807C00E
:109A800041F228074FF0020C43F807C04FF0004C9A
:109A900043F807C09F6DFF03FCD442F228074FF044
:109AA000004C22F4706242F40072B0F5C84F43F8E3
:109AB00007C05A6302D8B1F5C80F0CD9384A4149DA
:109AC0009369096823F47F0323F47F4343EA012366
:109AD00043EA01439361324B3B491A69096822F416
:109AE0007F62880822F00F02024342EA80121A6164
:109AF0009A6922F0FF020A439A610222002D42D1A4
:109B000042F228015A500122002C3FD041F2280194
:109B10005A50002E23DA42F270024FF00041204BDF
:109B200099502A4A1278D2B142F228020121995062
:109B300041F22802022199509A6DD203FCD441F2DD
:109B400018024FF000419950022215BB42F2280141
:109B50005A50134B0122FCB141F228015A50BDE882
:109B6000F88341F228014BE742F2280150E7FFF762
:109B70006FFE164B1F704CE7FFF77AFE00F030FEC9
:109B800088F8009045E741F22801BBE742F228013E
:109B9000BEE741F22801DBE742F22801DEE700BF21
:109BA00000C0004040190020441900203C1900204A
:109BB0003819002034190020301900202C190020F9
:109BC00041190020400C00203C0C002042190020CC
:109BD000FFF7C0BE10B50446FEF702FB024B1C6047
:109BE000FEF702FB002010BD4819002010B5FEF75B
:109BF000F7FA034B1C68FEF7F7FA204610BD00BFCA
:109C00004819002070B50C46154610B9FFF7EEFF55
:109C100038B143682BB12A462146BDE87040006840
:109C20001847232070BD07B502AB03F8011D0122C0
:109C30001946FFF7E7FF03B05DF804FB41F2480364
:109C40000421826AD150704738B50446826A136C89
:109C50005B06FCD50023216B1A4694F82E00FEF714
:109C600069FE0023A16B1A4694F83400FEF762FEE9
:109C700094F84C3033B10023216C1A4694F83C0020
:109C8000FEF758FE94F84C3033B10023A16C1A460D
:109C900094F84400FEF74EFE0021A06A094DFEF73D
:109CA000D9FC0021A08DFDF7CDFD04F1500128461F
:109CB000FCF741FF2B6813B9034800F0A3FC002018
:109CC00038BD00BF4C1900205019002010B50446C3
:109CD000806AFEF7CEFC41F248030121A26A00200F
:109CE000D15010BD012910B505D8064B1C68503C59
:109CF00014F1500F00D110BDA06A0521FEF7AAFC97
:109D0000246DF4E74C1900202DE9F0431C4689B07E
:109D10000DF11008064689461746002110224046DC
:109D2000109D26F04CFD63793046002B14BF0123B3
:109D30000223CDE90233644B4A460193634B294623
:109D40000093634B00F0F6F90646002840F084804B
:109D5000E3880121AB8563693A20AB63237C85F8F6
:109D60003430E3682B63237A85F82E30E3692B6463
:109D7000237E85F83C30636AAB6494F8203085F824
:109D800044302368AB62FDF75DFD01230422E168E6
:109D9000207AFEF7CFFD012302226169207CFEF7C5
:109DA000C9FD3E7085F84C600121E088FDF74AFD51
:109DB00063790121002B53D14FF4C060FDF742FDC0
:109DC0000E21E088FEF7CAF839462068FEF743FD09
:109DD0000222404BE1681A60227A42EA01421A618B
:109DE0006169227C42EA0142DA602379EBB1022BFD
:109DF0008DF81030C7F81C8045D0032B5AD0012BAA
:109E000060D1002795F84C3043F0010385F84C30C1
:109E100000230222E169207EFEF78CFDE269237EA9
:109E200043EA02432C4A53609FBB042342F244029C
:109E300020680521835041F248028350FEF70AFC56
:109E4000264B1B681BB92649264800F0C9FB05F1C3
:109E500050012248FCF76BFE304609B0BDE8F083A4
:109E60004FF48060FDF7EEFC0D21E088FEF776F8F8
:109E700039462068FEF7ECFC95F84C3043F00403BB
:109E800085F84C30A4E795F84C3043F0020385F890
:109E90004C3000230422616A94F82000FEF74AFD4A
:109EA00001230D4A616A136094F8203043EA0143AC
:109EB0009360BAE795F84C30012743F0030385F827
:109EC0004C30A5E72326C7E7499C00003D9C0000D5
:109ED000CD9C0000C0C40340C0D403404C190020F6
:109EE000440C002050190020826A38B5936C526CE3
:109EF0000446134059070ED500F09EF9F8B1A06A48
:109F0000FEF7B1FB0146204600F09DF942F2440302
:109F1000A26A0421D150A36A5A6CD2070ED501253A
:109F200042F244029D5042F2480220469D5000F009
:109F30009DF918B941F24803A26AD55038BDA26A0A
:109F400042F24803E5E7FEE780F82010704790F8FA
:109F50002000704790F8240070472DE9F843002650
:109F6000044690461D461E604F1E2B68434506D38F
:109F70002B68002B0CBF1B200020BDE8F883FEF7E8
:109F800036F9D4F81490FEF738F9B9F1000FEFD094
:109F9000E368A269D35C07F8013FE368E269013333
:109FA0009342E36008BFE660FEF721F96369013B75
:109FB0006361FEF722F96368204698472B680133F6
:109FC0002B60D2E72DE9F04104460D46164690F885
:109FD0002080FEF705F9012394F8237084F82330DC
:109FE000FEF702F92FB9154A394694F8260000F019
:109FF000A5FA2E44B8F1000F13D0AE4213D02B783F
:10A000000A2B03D123680D2120469847236815F8B1
:10A01000011B20469847F0E7236815F8011B2046EE
:10A020009847B542F8D194F82600044A012100F07F
:10A0300085FA002084F82300BDE8F081F2120300C5
:10A0400000280DDB0122430900F01F0002FA00F096
:10A05000044A203342F82300BFF34F8FBFF36F8FC2
:10A06000704700BF00E100E0002809DB012243093E
:10A0700000F01F0002FA00F0024A603342F82300A9
:10A08000704700BF00E100E070B504460568FFF7C7
:10A09000ADFD844202D10020FFF79CFD95F921001F
:10A0A000FFF7E2FF95F92100FFF7CAFF95F92200BB
:10A0B000FFF7DAFF95F92200FFF7C2FF00232846D9
:10A0C000C4E90033A360C4E90433AB68BDE8704061
:10A0D000184790F8233001223BB190F82730022B2B
:10A0E00003D180F82720184670471346FBE700008D
:10A0F00038B5044690F824300D4651B143B90A4AA8
:10A10000012190F8250000F019FA012384F8243089
:10A1100038BD002BFCD0044A90F8250000F00EFA60
:10A1200084F82450F4E700BFF2120300036A0068C9
:10A1300018470000F8B51F46536806460C461546FA
:10A14000002B63D09368002B62D028220021204688
:10A1500026F035FB6B682046A361AB68E3612B7B7F
:10A160002760012784F82030069B6360079BA3606B
:10A170002B7884F821306B7884F82230254B3460BA
:10A180007360254BB360254B3361254B7361254BC1
:10A19000F360254B3362254B84F82770B361244B61
:10A1A000697BF3619DF8243084F8237084F82630AD
:10A1B0009DF8203084F82530002384F82430FFF700
:10A1C00097FF95F90100FFF74FFF95F90130002B3C
:10A1D00006DB5A0903F01F039F40164B43F8227019
:10A1E00095F90000FFF740FF95F90030002B08DBE0
:10A1F0000122590903F01F0302FA03F30D4A42F842
:10A2000021303046FFF7E6FC0020F8BD2220FCE7B5
:10A210002120FAE7C59F00005B9F0000499F0000D6
:10A220004F9F000089A00000D3A00000F1A0000013
:10A23000559F000000E100E04269C06982422CBFE6
:10A2400000200120704703698269D1544269036983
:10A2500001324261C26901339342036104BF0023AA
:10A260000361042380F827307047000090F8231022
:10A2700010B5044651B90123064A80F8233090F8FE
:10A28000260000F05BF9022384F8273094F82300BD
:10A2900010BD00BFF2120300BFF34F8FBFF36F8FEB
:10A2A000054A536A23F480335362D2F8943023F082
:10A2B0000103C2F89430704700ED00E070B5FFF77D
:10A2C000EBFF1E4C1E481F4B844208BF4FF08042DC
:10A2D000196B1CBF20F01F02203A21F0FF0141F052
:10A2E000A001B2F1005F196309D3174D174E296819
:10A2F00042F0010299600131DE601A6129608442F6
:10A300000CD01148124A016822F01F0242F00302E9
:10A310009960DA600F4A01311A610160BFF34F8F13
:10A32000BFF36F8F05225A600B4A536A43F48033A0
:10A330005362BFF34F8FBFF36F8F70BDC80F002004
:10A34000E80D002090ED00E05819002003000020E7
:10A35000E70F0020E1FFFF3F00ED00E010B51446DD
:10A36000FFF79AFF1F2C194B1ED91A6BC40622F453
:10A370007F4242F4807218BF20F01F00144C1A6311
:10A3800018BF2030CA0618BF21F01F01226820F034
:10A390001F0021F01F019A6040F0030041F003010B
:10A3A0000132D86019612260BFF34F8FBFF36F8F06
:10A3B00005225A60074A536A43F480335362BFF35D
:10A3C0004F8FBFF36F8F002010BD00BF90ED00E0F6
:10A3D0005819002000ED00E0BFF34F8F0549064BF0
:10A3E000CA6802F4E0621343CB60BFF34F8F00BF33
:10A3F000FDE700BF00ED00E00400FA0508B5FFF737
:10A40000EBFF08BD034B1B78002B14BF012002207B
:10A41000704700BF841900200329F8B598BF124B7C
:10A4200006460F4694BF5C5C0024032805D8DFE88D
:10A4300000F002080B0E44F002040C4B1D684DB9ED
:10A44000F8BD44F00804F8E744F02004F5E744F0D0
:10A450008004F2E76B681A68144203D05B683946DF
:10A46000304698472D68EAE7FC1203008019002067
:10A47000F8B5FDF7B5FE144C07462378134D83B1AC
:10A48000134E33781BB100F091FA00233370002093
:10A4900000F0AAFA18B10023237000F0AFFA237875
:10A4A0006BB901212878FFF7B7FF01232B702A78B9
:10A4B000084B38461A70BDE8F840FDF795BE0122FA
:10A4C000054B1A70F3E700BF7E19002074190020B5
:10A4D0007C190020751900207F19002070B5FDF748
:10A4E0007FFE114D06462A788AB900F09BFB044690
:10A4F00020B13046FDF778FE204670BD00F08EFC9E
:10A500000A4B18600A48FCF70FFB0A4B1C6000F06E
:10A5100085F900F0A7FA084B0024186001233046A3
:10A520002B70FDF761FEE7E77D19002088190020F8
:10A53000801900208C19002078190020F8B50E46EB
:10A540000446FDF74DFE002E14BF0121FF21164ADF
:10A550000546601E135C154C0B4413542278012AE7
:10A560001CD9FFF74FFF8242074617D9104E3378A8
:10A570001BB100F01BFA002333700E4A137843B16D
:10A58000002313700C4A0120137000F02DFA00F024
:10A5900035FA39462078FFF73FFF27702846BDE897
:10A5A000F840FDF721BE00BF841900207419002077
:10A5B0007C1900207E1900207F19002010B5044668
:10A5C000FDF70EFE002C14BF0121FF21034A137872
:10A5D0000B441370BDE81040FDF706BE861900203D
:10A5E00038B541600446FDF7FBFD054621460448A9
:10A5F000FCF79DFA2846BDE83840FDF7F5BD00BFE1
:10A600008019002038B50546FDF7EAFD04462946C5
:10A610000348FCF790FA2046BDE83840FDF7E4BD5A
:10A6200080190020054B1B685843054B00F574202A
:10A6300000F23F20B0FBF3F0704700BF8819002004
:10A6400040420F002DE9FF47FDF7CAFD0446FCF725
:10A650007DF9002800F08B80564FDFF87C813D4665
:10A660003B782BB1544A1378013B137000233B70A5
:10A67000FFF7C8FEB0B14FF001090238484518D8BD
:10A6800003A9002000F08AFB824690B94B4B039A45
:10A690001B689A4271D8484A85F8009013780133B4
:10A6A000137006E02B7823B1434A28701378013BDE
:10A6B0001370FFF7A7FE0128064604D9404B1B780C
:10A6C0000BB900F035F9DFF8149199F80000CA468B
:10A6D000B04207D03B4B1B7813B93146FFF79CFEC5
:10A6E00089F80060012E0CD9354E33784BB9364BC2
:10A6F0001B7823B900F054F90122344B1A7001235E
:10A70000337099F8000000F097F900E000BF204690
:10A71000FDF76AFDFDF764FD0446404600F0BCFA13
:10A72000FCF71FF9064600289AD1254B1A7872B11A
:10A730001870264F234B18703B7813B100F036F990
:10A740003E70002000F050F948B300F057F92B7824
:10A750002BB1194A1378013B137000232B70002191
:10A760009AF80000FFF758FE00238AF800302046D0
:10A77000FDF73AFD04B0BDE8F087154B1E6800F008
:10A7800075F903993044884285D20223091ACDE92C
:10A7900000A3104A5346404600F0A6FA89E701207C
:10A7A00000F04AF92046FDF71FFDFDF719FD0446AC
:10A7B000C7E700BF871900208419002078190020FE
:10A7C0007E1900207F190020861900207C190020A6
:10A7D0008C19002071A400005C190020741900205D
:10A7E00038B50A4D2B787BB1094C237863B100F062
:10A7F00005F9084B01211878FFF70EFE01232B7095
:10A800000023054A2370137038BD00BF741900205F
:10A810007E190020751900207F190020F7B500244B
:10A82000022302A800F8084D8DF805308DF8044089
:10A830004FF40025FDF728FE8DF8054041F2640431
:10A8400001A8FDF72BFE344A344B116F01F00701CC
:10A850001960D2F82031D2F8240115514FF4003597
:10A86000155102F5A0329269032900F0070002F0A9
:10A87000020247D003F003039C1E63426341022897
:10A8800008BF43F001032649264C0B7062B3224AED
:10A890003BB9D2F8003103F00303581E4342434151
:10A8A0000B70D2F8003103F00303022B2CD0032BE2
:10A8B0002DD0012B2ED1FCF7F9F800271A4B0246B8
:10A8C000DB68461EC3F30B030133184803EB830117
:10A8D000E0FB016700233046394625F063FDFFF7B2
:10A8E000A1FE2368184420602320FFF79BFE236805
:10A8F000184420606420FFF795FE23681844206008
:10A9000003B0F0BD0123BAE7FCF7F2F8D5E7FCF796
:10A91000E3F8D2E70020D0E7008000404448002060
:10A92000921900209419002000C0014040420F00FD
:10A93000FDF750BD074B1A7852B100221A70064A33
:10A94000136F23F0070343F001031367FCF798B874
:10A95000704700BF90190020008000400D4B10B5DB
:10A960001B78B3B1022000F0CFFB90B100F044FAA5
:10A9700078B1094B9A6DD20302D5DB6D9B0708D4E1
:10A980000124064B1C70FEF765FF41F22803024AC2
:10A99000D45010BD9219002000C000409119002031
:10A9A0000122014B1A7070479019002038B50B4BEB
:10A9B0001B788BB10A4D2A7862B90A4CA36DDA0371
:10A9C00002D5E36D9B0707D4FEF744FF41F228034D
:10A9D0000122E25000232B7038BD00BF92190020E5
:10A9E0009119002000C00040034B1B780BB1FEF70B
:10A9F000A1BF0120704700BF9219002008B5FDF7E4
:10AA0000ECFC0A4A0A49136F096823F007030B4359
:10AA10001367084B1B782BB142F22803012102F582
:10AA20008042D150BDE80840FCF72AB800800040C1
:10AA3000444800209219002002280AD003280BD095
:10AA400001280CD1064A136923F00403136130BFB7
:10AA500070470020FDF79ABC0020FDF7B9BC704795
:10AA600000ED00E04FF4C870FFF7DCBD08B5054B02
:10AA7000187818B1FEF734FF00EBD000024B1B68CA
:10AA8000184408BD92190020941900200122014B9E
:10AA90001A70704792190020094B07B5986800F1A9
:10AAA0006043B3F5004F07D30023CDE900335023B3
:10AAB000044A1946FDF7FAFB03B05DF804FB00BF3A
:10AAC00000ED00E0001A0020104A30B51368416123
:10AAD0001546ABB91060836011E0091B9C684161A9
:10AAE0001A467CB123465C698C42F6D9002CF4D01E
:10AAF00052B19060836013B15A69511A596130BDE7
:10AB00000022F0E72346F4E72860F3E7581B002013
:10AB100010B500F0A1FA094B094A196831B1136860
:10AB2000C41A4B69A34203D31B1B4B61106003E0A3
:10AB3000C01A002310604B6110BD00BF581B0020DD
:10AB4000441B002038B50F4D02202B685C690E4B6A
:10AB50001B681C4400F0B4FA204600F085FA00237C
:10AB60000A492A680B70D088800702D501230B7030
:10AB700038BD9268002AFBD050690344012BF2D9FA
:10AB8000F6E700BF581B0020441B00204C1B002090
:10AB900070B59DF81450164605710025049A85601D
:10ABA000BDF818500446C5800260C0E903360D4662
:10ABB00029B961610BB11146984796B13546FDF749
:10ABC00016FB0646FFF7A4FF29462046FFF77CFF49
:10ABD000054B1B68A34201D1FFF7B4FF3046FDF7D8
:10ABE0000CFB002070BD00BF581B002000210C4A48
:10ABF00013687BB183420AD1836879B18B60836823
:10AC00001BB15A6941690A445A61002070471946CC
:10AC10009B68EEE70028EFD0022070471360EEE754
:10AC2000581B002070B5FDF7E2FA144E0546347843
:10AC3000FCB9134B1C60134B1C60134B1C8000F0C1
:10AC4000C9F9012000F03CFA00F088FA0F4B0246E7
:10AC5000186020B92846FDF7D0FA232070BD23469E
:10AC60000B4840F2E73125F09DFB0A4B18600123A9
:10AC700033702846FDF7C1FA0020EFE7401B0020A3
:10AC8000581B0020441B00204E1B0020541B00209A
:10AC900018FCFFFF481B00202DE9F0410546F8B1E4
:10ACA000FDF7A5FA0F4F0646FFF732FF2846D7F803
:10ACB0000080FFF79BFF044628B13046FDF79DFA60
:10ACC0002046BDE8F081A8453B6803D123B1FFF7DA
:10ACD00039FFF2E7002BF0D1022000F0FDF9ECE79C
:10ACE0002224EDE7581B0020F0B50D4685B016462E
:10ACF0001F46044680B1FFF7CFFFBDF82C3000227D
:10AD000002939DF828302946CDE90073204633464A
:10AD1000FFF73EFF05B0F0BD2220FBE738B50C463B
:10AD2000054698B191B100230B70FDF760FA01213F
:10AD3000074B1B680BB122781AB1FDF75EFA0020B1
:10AD400038BD9D420CBF21709B68F3E72220F7E7D6
:10AD5000581B0020F0B51F46002387B00D4616464D
:10AD60008DF817300446A0B10DF11701FFF7D6FF9B
:10AD70009DF817207AB9BDF83430294602939DF822
:10AD800030302046CDE900733346FFF701FF07B0AE
:10AD9000F0BD2220FBE70320F9E70000F8B50746E5
:10ADA0000E46FDF724FA00240546114B1B6823B913
:10ADB0002846FDF722FA1B2015E05A691444DA8868
:10ADC000BA4213D100F048F90A4F3B68C01AA042BA
:10ADD0000AD200F041F93B68C01A201A30602846B8
:10ADE000FDF70BFA0020F8BD0020F7E79B68DEE7CF
:10ADF000581B0020441B0020014B1878704700BFEF
:10AE00004C1B002038B5FDF7F2F9054600F024F997
:10AE100004462846FDF7F1F9204638BD014B186875
:10AE2000704700BF541B00200A4B10B51B680C462E
:10AE300083420CD3084B4FF47A7219680023A0FBAD
:10AE4000010125F0AFFA01302060002010BD212063
:10AE5000FCE700BF481B0020541B0020104B10B51E
:10AE60001A684FF47A73A0FB0301A2B1531E134278
:10AE700011D1B2FA82F2C2F11F02C2F12004A2F192
:10AE8000200301FA04F420FA02F2224321FA03F328
:10AE900042EA030010BD002325F084FAFAE700BF60
:10AEA000541B0020C2072DE9F84F04460BD53F4A3A
:10AEB000138801339BB21380FFF72AFE3C4B1B68BB
:10AEC0000BB1FFF73FFEA3076DD500F0C5F8394F72
:10AED00000263D688046451BFDF789F9B24683464A
:10AEE0003246334B1C6814B16369AB4214D9012E4E
:10AEF000314B51D1D288022A4ED11E70002C4ED037
:10AF00006369C7F800805D1B6561FFF71BFE58464B
:10AF1000BDE8F84FFDF771B923462A46C7F800800F
:10AF20005969914209D8187994F804C0521A844595
:10AF300088BF1C469B68002BF2D15846FDF75DF98F
:10AF4000D4F814B0C4F814A0FDF751F98146204696
:10AF5000FFF74CFE4846FDF750F923694BB1FDF76A
:10AF600046F9814621692046FFF7AEFD4846FDF7C8
:10AF700044F9E36813B121682046984700F06CF863
:10AF8000D844A5EB080581460544FDF730F90136A4
:10AF900083462246C846A4E700221A70AEE7022084
:10AFA00000F09AF8B3E7BDE8F88F00BF4E1B002011
:10AFB000581B0020441B0020501B002010B5FDF73B
:10AFC00016F9034B1C78FDF718F9204610BD00BF99
:10AFD000501B00201FB500241C4B012118689A88C3
:10AFE000029053F8060FADF80C201B7900903E201C
:10AFF0008DF80430FCF726FC02A88DF808408DF887
:10B000000C40FEF737FA694601208DF80040FEF744
:10B01000F5F94FF0904340F2FF319A6922F47F72C4
:10B0200022F003029A610A4A11609A6A12F0080239
:10B03000FBD11A620120FEF7FBF94FF48052054B59
:10B04000C3F880211A6004B010BD00BF00130300D4
:10B050001420004800E100E04FF090439A6A120784
:10B06000FCD4186A704700004FF09042936A1907A9
:10B07000FCD4136A116C5269520604D4CA1A022A0B
:10B0800001D899420ED1C21A012A98BF981CB0F17A
:10B09000FF3F28BF01304FF0904318649A6942F097
:10B0A00040029A61054A13783BB14FF09041CB6B57
:10B0B00043F00203CB630023137070474C0C002055
:10B0C00082074FF0904200F00103916948BF43F0BE
:10B0D00040030B4393617047830700F001020AD5D8
:10B0E0000121084B42F0400219704FF09041CB6BA8
:10B0F00023F00303CB634FF090418B6923EA0203F3
:10B100008B6170474C0C00204FF0904301285B6925
:10B1100004D0022805D1C3F38010704703F001006A
:10B12000704700207047000010B5FDF760F84FF041
:10B13000904304465B695A06074A03F0010003F096
:10B14000510348BF40F002001360FFF7ABFE2046FA
:10B15000BDE81040FDF751B8142000483E20FCF730
:10B16000BBBB08B5FBF758FBFBF78CFBFBF791FB70
:10B17000FBF79CFBBDE80840FBF7A1BB08B5FBF75C
:10B180009FFBFBF79EFBFBF79DFBBDE80840FBF731
:10B190009BBB24207047442070474C207047982068
:10B1A000704738B50446FDF71BF80546204625F0E4
:10B1B000C3FA04462846FDF717F8204638BD70B597
:10B1C00004460E46FDF70CF831460546204625F0AC
:10B1D00073FA04462846FDF707F8204670BD38B5D7
:10B1E0000546FCF7FDFF0446284625F0ADFA20464B
:10B1F000BDE83840FCF7F8BF0023F0B51D46043920
:10B20000854201D11846F0BD4F68FC1A41F8044F41
:10B2100052F825600135B4422CBF4FF0000C4FF0BE
:10B22000010CA41B9F422CBF63460CF101030C6070
:10B23000E6E72DE9F04384460D464FF0000E02F19B
:10B240004004BCF10F0F54F8408C05F1400504F1A7
:10B25000400400F2BA806FF00F044FEA101C04FBA8
:10B260000C004FEA8C1C072801EB0C0502EB0C04C8
:10B2700040F2938051F80C600838A3FB06671EEB80
:10B28000060E2CBF4FF001094FF0000918EB0E011C
:10B2900042F80C102CBF012200226E68B944A3FBB7
:10B2A00006674A4492192CBF01210021666801EB10
:10B2B000070C92194FF0000128BF01216260AE68AF
:10B2C0006144A3FB066789192CBF01220022A668EE
:10B2D00002EB070C89194FF0000228BF0122A16080
:10B2E000EE686244A3FB066792192CBF012100217E
:10B2F000E66801EB070C92194FF0000128BF01210D
:10B30000E2602E696144A3FB066789192CBF012204
:10B310000022266902EB070C89194FF0000228BFB2
:10B32000012221616E696244A3FB066792192CBF5A
:10B3300001210021666901EB070C92194FF0000111
:10B3400028BF01216261AE696144A3FB06678919C8
:10B350002CBF01220022A66902EB070E89194FF0CB
:10B36000000228BF0122A161EE697244A3FB0667B7
:10B3700092192CBF4FF0010E4FF0000E05F1200C7A
:10B38000E5690EEB070152194FF0000E28BF4FF090
:10B39000010E6546E2618E4420342146800005EBB3
:10B3A000000C654551F8042B40F09E81044423684D
:10B3B000002213EB0E0328BF012244F8043B4FF098
:10B3C000010E002AF3D1BDE8F08355F8406CACF1D2
:10B3D000100CA3FB06671EEB060E2CBF4FF00109F5
:10B3E0004FF000091EEB08062CBF4FF001084FF08C
:10B3F000000844F8806C55F83C6CB944A3FB066720
:10B40000C84418EB06082CBF4FF0010E4FF0000E99
:10B4100054F87C6C0EEB070916EB08064FF0000E93
:10B4200028BF4FF0010E44F87C6C55F8386CCE44C0
:10B43000A3FB06671EEB060E2CBF4FF001084FF072
:10B44000000808EB070954F8787C4FF0000817EB68
:10B450000E0728BF4FF0010844F8787C55F8346C8B
:10B46000C844A3FB066718EB06082CBF4FF0010E7B
:10B470004FF0000E54F8746C0EEB070916EB08063B
:10B480004FF0000E28BF4FF0010E44F8746C55F8D1
:10B49000306CCE44A3FB06671EEB060E2CBF4FF0AC
:10B4A00001084FF0000808EB070954F8707C4FF0D2
:10B4B000000817EB0E0728BF4FF0010844F8707C16
:10B4C00055F82C6CC844A3FB066718EB06082CBF84
:10B4D0004FF0010E4FF0000E54F86C6C0EEB0709A4
:10B4E00016EB08064FF0000E28BF4FF0010E44F88F
:10B4F0006C6C55F8286CCE44A3FB06671EEB060E59
:10B500002CBF4FF001084FF0000808EB070954F872
:10B51000687C4FF0000817EB0E0728BF4FF00108BA
:10B5200044F8687C55F8246CC844A3FB066718EB04
:10B5300006082CBF4FF0010E4FF0000E54F8646C5B
:10B540000EEB070916EB08064FF0000E28BF4FF070
:10B55000010E44F8646C55F8206CCE44A3FB0667DA
:10B560001EEB060E2CBF4FF001084FF0000808EB51
:10B57000070954F8607C4FF0000817EB0E0728BF4E
:10B580004FF0010844F8607C55F81C6CC844A3FBDC
:10B59000066718EB06082CBF4FF0010E4FF0000EA7
:10B5A00054F85C6C0EEB070916EB08064FF0000E22
:10B5B00028BF4FF0010E44F85C6C55F8186CCE446F
:10B5C000A3FB06671EEB060E2CBF4FF001084FF0E1
:10B5D000000808EB070954F8587C4FF0000817EBF7
:10B5E0000E0728BF4FF0010844F8587C55F8146C3A
:10B5F000C844A3FB066718EB06082CBF4FF0010EEA
:10B600004FF0000E54F8546C0EEB070916EB0806C9
:10B610004FF0000E28BF4FF0010E44F8546C55F85F
:10B62000106CCE44A3FB06671EEB060E2CBF4FF03A
:10B6300001084FF0000808EB070954F8507C4FF060
:10B64000000817EB0E0728BF4FF0010844F8507CA4
:10B6500055F80C6CC844A3FB066718EB06082CBF12
:10B660004FF0010E4FF0000E54F84C6C0EEB070932
:10B6700016EB08064FF0000E28BF4FF0010E44F8FD
:10B680004C6C55F8086CCE44A3FB06671EEB060E07
:10B690002CBF4FF001084FF0000808EB070954F8E1
:10B6A000487C4FF0000817EB0E0728BF4FF0010849
:10B6B00044F8487C55F8046CC844A3FB066718EBB3
:10B6C00006082CBF4FF0010E4FF0000E54F8446CEA
:10B6D000774416EB08064FF0000E28BF4FF0010E1E
:10B6E00044F8446CBE44ACE555F8046BA3FB067803
:10B6F0001EEB070E2CBF012600261EEB02022CBFFC
:10B700004FF0010E4FF0000E464441F8042CB644B1
:10B7100047E601F18041013900EB8101884203468F
:10B7200000D970471B680A681BBA12BA40F8042B8C
:10B7300041F80439F2E7002301228360C0E90023C5
:10B74000704710B5044668B1806830B161688900FF
:10B7500001F0C6FDA068FFF742FD00230122C4E905
:10B760000023A36010BD42F21073994270B50446E5
:10B770000D4602D96FF00F0070BD43688B4216D2A0
:10B7800004212846FFF71BFD06460028F2D0A168D9
:10B7900059B16268920024F0EEFF6168A0688900E8
:10B7A00001F09EFDA068FFF71AFDC4E901560020D4
:10B7B000E2E7884270B505460E4603D04C681CB9D6
:10B7C000FFF7BFFF00200DE0631EA0005BB96A68B1
:10B7D0005C1C3368A2422B600ED221462846FFF73C
:10B7E000C2FF88B170BDB268024452F8042C04381C
:10B7F000002AECD1013BE9E7A868121B9200002166
:10B8000000EB840024F0DBFFA200B168A86824F0FC
:10B81000B2FFD7E770B50E4601210446FFF7A3FF3C
:10B82000054688B9626801469200A06824F0C7FF07
:10B83000A36886EAE672002EA2EBE6721A60B4BF35
:10B840004FF0FF3301232360284670BD4368DBB10E
:10B8500081685A1E9B007AB900204FF0004351F8CE
:10B860002210194204D1013020284FEA5303F8D1A5
:10B87000C0EB421020307047C81850F8040C043B4D
:10B880000028E9D1013AE6E718467047F8B50F46B7
:10B8900012F0030118BF0121436801EB9205AB428E
:10B8A0000446164618D100212046FFF7B3FF00BB1F
:10B8B0000346B3421DD0FA5CD4F808C0D90023F087
:10B8C000030501F0180102FA01F15CF805200133CB
:10B8D0000A434CF80520ECE7FFF733FF0023012271
:10B8E000A360C4E9002329462046FFF73CFF002857
:10B8F000D9D0F8BD2DE9F04112F0030418BF01249E
:10B90000436804EB9204A34207468846154608D1D3
:10B9100000213846FFF77EFF064688B13046BDE875
:10B92000F081FFF70EFF00230122BB60C7E900236F
:10B9300021463846FFF717FF06460028E8D0EDE716
:10B94000B8F1000FEAD0BB68C5EB84002A46414637
:10B95000184424F010FF002CE0D02146B868FFF70F
:10B96000D8FEDBE7F8B543680E469B0093421DD333
:10B97000114699420CD1944600218C4518D193422E
:10B9800004D2D21A0021F01824F019FF00201DE083
:10B99000876801F0030421F0030CE50057F80C4020
:10B9A000EC4014F0FF0F0FD10131E2E79C46E3E7D2
:10B9B000876801F0030421F0030EE50057F80E40FC
:10B9C000EC4074540131D8E76FF00700F8BDF8B5CA
:10B9D00005466C680846A40094421CD2121B8E18BF
:10B9E000002124F0ECFE30462246002310449A4207
:10B9F00013D10020F8BDAF6803F0030123F0030C5E
:10BA0000CE0057F80C10F14011F0FF0F11D10133A7
:10BA1000A342F0D1E9E71346FAE7AF6803F0030168
:10BA200023F00306CC00B9590133E14000F8011DB1
:10BA3000DDE76FF00700DDE7F8B506460D464C0977
:10BA400001F01F07FFF702FF73682844B0EB431FA4
:10BA500003D874B92FBB00200AE010F01F0118BFF3
:10BA6000012101EB50113046FFF77DFE0028F0D098
:10BA7000F8BD7368A00003F18042013A121B9200E6
:10BA8000A34207D800229B00043B191DE2D0B168F5
:10BA9000CA50F9E7B168013B8D5811440D50043A82
:10BAA000EEE70021D6F804C0A300C7F1200EA4459C
:10BAB000D1D9B5680134E85800FA07F20A43EA50D0
:10BAC00020FA0EF10433F2E74368F0B44D09AB42BB
:10BAD00003D301F01F0104D169B3F0BC0021FFF7CB
